{
  "_format": "hh-sol-artifact-1",
  "contractName": "Launchpad",
  "sourceName": "contracts/Launchpad.sol",
  "abi": [
    {
      "inputs": [
        {
          "internalType": "uint256",
          "name": "_fee",
          "type": "uint256"
        }
      ],
      "stateMutability": "nonpayable",
      "type": "constructor"
    },
    {
      "anonymous": false,
      "inputs": [
        {
          "indexed": true,
          "internalType": "address",
          "name": "token",
          "type": "address"
        },
        {
          "indexed": false,
          "internalType": "uint256",
          "name": "amount",
          "type": "uint256"
        }
      ],
      "name": "Buy",
      "type": "event"
    },
    {
      "anonymous": false,
      "inputs": [
        {
          "indexed": true,
          "internalType": "address",
          "name": "token",
          "type": "address"
        }
      ],
      "name": "Created",
      "type": "event"
    },
    {
      "inputs": [],
      "name": "TARGET",
      "outputs": [
        {
          "internalType": "uint256",
          "name": "",
          "type": "uint256"
        }
      ],
      "stateMutability": "view",
      "type": "function"
    },
    {
      "inputs": [],
      "name": "TOKEN_LIMIT",
      "outputs": [
        {
          "internalType": "uint256",
          "name": "",
          "type": "uint256"
        }
      ],
      "stateMutability": "view",
      "type": "function"
    },
    {
      "inputs": [
        {
          "internalType": "address",
          "name": "_token",
          "type": "address"
        },
        {
          "internalType": "uint256",
          "name": "_amount",
          "type": "uint256"
        }
      ],
      "name": "buy",
      "outputs": [],
      "stateMutability": "payable",
      "type": "function"
    },
    {
      "inputs": [
        {
          "internalType": "string",
          "name": "_name",
          "type": "string"
        },
        {
          "internalType": "string",
          "name": "_symbol",
          "type": "string"
        }
      ],
      "name": "create",
      "outputs": [],
      "stateMutability": "payable",
      "type": "function"
    },
    {
      "inputs": [
        {
          "internalType": "address",
          "name": "_token",
          "type": "address"
        }
      ],
      "name": "deposit",
      "outputs": [],
      "stateMutability": "nonpayable",
      "type": "function"
    },
    {
      "inputs": [],
      "name": "fee",
      "outputs": [
        {
          "internalType": "uint256",
          "name": "",
          "type": "uint256"
        }
      ],
      "stateMutability": "view",
      "type": "function"
    },
    {
      "inputs": [
        {
          "internalType": "uint256",
          "name": "_sold",
          "type": "uint256"
        }
      ],
      "name": "getCost",
      "outputs": [
        {
          "internalType": "uint256",
          "name": "",
          "type": "uint256"
        }
      ],
      "stateMutability": "pure",
      "type": "function"
    },
    {
      "inputs": [
        {
          "internalType": "uint256",
          "name": "_index",
          "type": "uint256"
        }
      ],
      "name": "getTokenSale",
      "outputs": [
        {
          "components": [
            {
              "internalType": "address",
              "name": "token",
              "type": "address"
            },
            {
              "internalType": "string",
              "name": "name",
              "type": "string"
            },
            {
              "internalType": "address",
              "name": "creator",
              "type": "address"
            },
            {
              "internalType": "uint256",
              "name": "sold",
              "type": "uint256"
            },
            {
              "internalType": "uint256",
              "name": "raised",
              "type": "uint256"
            },
            {
              "internalType": "bool",
              "name": "isOpen",
              "type": "bool"
            }
          ],
          "internalType": "struct Launchpad.TokenSale",
          "name": "",
          "type": "tuple"
        }
      ],
      "stateMutability": "view",
      "type": "function"
    },
    {
      "inputs": [],
      "name": "owner",
      "outputs": [
        {
          "internalType": "address",
          "name": "",
          "type": "address"
        }
      ],
      "stateMutability": "view",
      "type": "function"
    },
    {
      "inputs": [
        {
          "internalType": "address",
          "name": "",
          "type": "address"
        }
      ],
      "name": "tokenToSale",
      "outputs": [
        {
          "internalType": "address",
          "name": "token",
          "type": "address"
        },
        {
          "internalType": "string",
          "name": "name",
          "type": "string"
        },
        {
          "internalType": "address",
          "name": "creator",
          "type": "address"
        },
        {
          "internalType": "uint256",
          "name": "sold",
          "type": "uint256"
        },
        {
          "internalType": "uint256",
          "name": "raised",
          "type": "uint256"
        },
        {
          "internalType": "bool",
          "name": "isOpen",
          "type": "bool"
        }
      ],
      "stateMutability": "view",
      "type": "function"
    },
    {
      "inputs": [
        {
          "internalType": "uint256",
          "name": "",
          "type": "uint256"
        }
      ],
      "name": "tokens",
      "outputs": [
        {
          "internalType": "address",
          "name": "",
          "type": "address"
        }
      ],
      "stateMutability": "view",
      "type": "function"
    },
    {
      "inputs": [],
      "name": "totalTokens",
      "outputs": [
        {
          "internalType": "uint256",
          "name": "",
          "type": "uint256"
        }
      ],
      "stateMutability": "view",
      "type": "function"
    },
    {
      "inputs": [
        {
          "internalType": "uint256",
          "name": "_amount",
          "type": "uint256"
        }
      ],
      "name": "withdraw",
      "outputs": [],
      "stateMutability": "nonpayable",
      "type": "function"
    }
  ],
  "bytecode": "0x60a060405234801561001057600080fd5b50604051613f2c380380613f2c833981810160405281019061003291906100bb565b8060808181525050336000806101000a81548173ffffffffffffffffffffffffffffffffffffffff021916908373ffffffffffffffffffffffffffffffffffffffff160217905550506100e8565b600080fd5b6000819050919050565b61009881610085565b81146100a357600080fd5b50565b6000815190506100b58161008f565b92915050565b6000602082840312156100d1576100d0610080565b5b60006100df848285016100a6565b91505092915050565b608051613e2261010a600039600081816103310152610e5e0152613e226000f3fe6080604052600436106100c25760003560e01c80637e1c0c091161007f578063cc1f2afa11610059578063cc1f2afa14610286578063cce7ec13146102b1578063ddca3f43146102cd578063f340fa01146102f8576100c2565b80637e1c0c09146101ee5780638da5cb5b146102195780639c0ad5ed14610244576100c2565b8063031bd4c4146100c7578063198e2b8a146100f25780631fbc147b1461010e5780632e1a7d4d1461014b5780634f64b2be146101745780635a4dd47d146101b1575b600080fd5b3480156100d357600080fd5b506100dc610321565b6040516100e991906112cb565b60405180910390f35b61010c60048036038101906101079190611440565b61032f565b005b34801561011a57600080fd5b50610135600480360381019061013091906114e4565b61061b565b6040516101429190611684565b60405180910390f35b34801561015757600080fd5b50610172600480360381019061016d91906114e4565b61081f565b005b34801561018057600080fd5b5061019b600480360381019061019691906114e4565b61097e565b6040516101a891906116b5565b60405180910390f35b3480156101bd57600080fd5b506101d860048036038101906101d391906114e4565b6109bd565b6040516101e591906112cb565b60405180910390f35b3480156101fa57600080fd5b50610203610a15565b60405161021091906112cb565b60405180910390f35b34801561022557600080fd5b5061022e610a1b565b60405161023b91906116b5565b60405180910390f35b34801561025057600080fd5b5061026b600480360381019061026691906116fc565b610a3f565b60405161027d96959493929190611782565b60405180910390f35b34801561029257600080fd5b5061029b610b50565b6040516102a891906112cb565b60405180910390f35b6102cb60048036038101906102c691906117ea565b610b5c565b005b3480156102d957600080fd5b506102e2610e5c565b6040516102ef91906112cb565b60405180910390f35b34801561030457600080fd5b5061031f600480360381019061031a91906116fc565b610e80565b005b6969e10de76676d080000081565b7f0000000000000000000000000000000000000000000000000000000000000000341015610392576040517f08c379a000000000000000000000000000000000000000000000000000000000815260040161038990611876565b60405180910390fd5b600033838369d3c21bcecceda10000006040516103ae90611241565b6103bb94939291906118db565b604051809103906000f0801580156103d7573d6000803e3d6000fd5b5090506002819080600181540180825580915050600190039060005260206000200160009091909190916101000a81548173ffffffffffffffffffffffffffffffffffffffff021916908373ffffffffffffffffffffffffffffffffffffffff160217905550600160008154809291906104509061195d565b919050555060006040518060c001604052808373ffffffffffffffffffffffffffffffffffffffff1681526020018581526020013373ffffffffffffffffffffffffffffffffffffffff168152602001600081526020016000815260200160011515815250905080600360008473ffffffffffffffffffffffffffffffffffffffff1673ffffffffffffffffffffffffffffffffffffffff16815260200190815260200160002060008201518160000160006101000a81548173ffffffffffffffffffffffffffffffffffffffff021916908373ffffffffffffffffffffffffffffffffffffffff16021790555060208201518160010190816105539190611ba7565b5060408201518160020160006101000a81548173ffffffffffffffffffffffffffffffffffffffff021916908373ffffffffffffffffffffffffffffffffffffffff160217905550606082015181600301556080820151816004015560a08201518160050160006101000a81548160ff0219169083151502179055509050508173ffffffffffffffffffffffffffffffffffffffff167f1449abf21e49fd025f33495e77f7b1461caefdd3d4bb646424a3f445c4576a5b60405160405180910390a250505050565b61062361124e565b600360006002848154811061063b5761063a611c79565b5b9060005260206000200160009054906101000a900473ffffffffffffffffffffffffffffffffffffffff1673ffffffffffffffffffffffffffffffffffffffff1673ffffffffffffffffffffffffffffffffffffffff1681526020019081526020016000206040518060c00160405290816000820160009054906101000a900473ffffffffffffffffffffffffffffffffffffffff1673ffffffffffffffffffffffffffffffffffffffff1673ffffffffffffffffffffffffffffffffffffffff168152602001600182018054610711906119d4565b80601f016020809104026020016040519081016040528092919081815260200182805461073d906119d4565b801561078a5780601f1061075f5761010080835404028352916020019161078a565b820191906000526020600020905b81548152906001019060200180831161076d57829003601f168201915b505050505081526020016002820160009054906101000a900473ffffffffffffffffffffffffffffffffffffffff1673ffffffffffffffffffffffffffffffffffffffff1673ffffffffffffffffffffffffffffffffffffffff16815260200160038201548152602001600482015481526020016005820160009054906101000a900460ff1615151515815250509050919050565b60008054906101000a900473ffffffffffffffffffffffffffffffffffffffff1673ffffffffffffffffffffffffffffffffffffffff163373ffffffffffffffffffffffffffffffffffffffff16146108ad576040517f08c379a00000000000000000000000000000000000000000000000000000000081526004016108a490611cf4565b60405180910390fd5b60008060009054906101000a900473ffffffffffffffffffffffffffffffffffffffff1673ffffffffffffffffffffffffffffffffffffffff16826040516108f490611d45565b60006040518083038185875af1925050503d8060008114610931576040519150601f19603f3d011682016040523d82523d6000602084013e610936565b606091505b505090508061097a576040517f08c379a000000000000000000000000000000000000000000000000000000000815260040161097190611da6565b60405180910390fd5b5050565b6002818154811061098e57600080fd5b906000526020600020016000915054906101000a900473ffffffffffffffffffffffffffffffffffffffff1681565b600080655af3107a400090506000655af3107a40009050600069021e19e0c9bab2400000905060008382876109f29190611df5565b846109fd9190611e26565b610a079190611e68565b905080945050505050919050565b60015481565b60008054906101000a900473ffffffffffffffffffffffffffffffffffffffff1681565b60036020528060005260406000206000915090508060000160009054906101000a900473ffffffffffffffffffffffffffffffffffffffff1690806001018054610a88906119d4565b80601f0160208091040260200160405190810160405280929190818152602001828054610ab4906119d4565b8015610b015780601f10610ad657610100808354040283529160200191610b01565b820191906000526020600020905b815481529060010190602001808311610ae457829003601f168201915b5050505050908060020160009054906101000a900473ffffffffffffffffffffffffffffffffffffffff16908060030154908060040154908060050160009054906101000a900460ff16905086565b6729a2241af62c000081565b6000600360008473ffffffffffffffffffffffffffffffffffffffff1673ffffffffffffffffffffffffffffffffffffffff1681526020019081526020016000209050600115158160050160009054906101000a900460ff16151514610bf7576040517f08c379a0000000000000000000000000000000000000000000000000000000008152600401610bee90611ee8565b60405180910390fd5b670de0b6b3a7640000821015610c42576040517f08c379a0000000000000000000000000000000000000000000000000000000008152600401610c3990611f54565b60405180910390fd5b69021e19e0c9bab2400000821115610c8f576040517f08c379a0000000000000000000000000000000000000000000000000000000008152600401610c8690611fc0565b60405180910390fd5b6000610c9e82600301546109bd565b90506000670de0b6b3a764000084610cb69190611df5565b82610cc19190611e26565b905080341015610d06576040517f08c379a0000000000000000000000000000000000000000000000000000000008152600401610cfd90612052565b60405180910390fd5b83836003016000828254610d1a9190611e68565b9250508190555080836004016000828254610d359190611e68565b925050819055506969e10de76676d08000008360030154101580610d6557506729a2241af62c0000836004015410155b15610d885760008360050160006101000a81548160ff0219169083151502179055505b8473ffffffffffffffffffffffffffffffffffffffff1663a9059cbb33866040518363ffffffff1660e01b8152600401610dc3929190612072565b6020604051808303816000875af1158015610de2573d6000803e3d6000fd5b505050506040513d601f19601f82011682018060405250810190610e0691906120c7565b508473ffffffffffffffffffffffffffffffffffffffff167fe3d4187f6ca4248660cc0ac8b8056515bac4a8132be2eca31d6d0cc170722a7e85604051610e4d91906112cb565b60405180910390a25050505050565b7f000000000000000000000000000000000000000000000000000000000000000081565b60008190506000600360008473ffffffffffffffffffffffffffffffffffffffff1673ffffffffffffffffffffffffffffffffffffffff1681526020019081526020016000206040518060c00160405290816000820160009054906101000a900473ffffffffffffffffffffffffffffffffffffffff1673ffffffffffffffffffffffffffffffffffffffff1673ffffffffffffffffffffffffffffffffffffffff168152602001600182018054610f37906119d4565b80601f0160208091040260200160405190810160405280929190818152602001828054610f63906119d4565b8015610fb05780601f10610f8557610100808354040283529160200191610fb0565b820191906000526020600020905b815481529060010190602001808311610f9357829003601f168201915b505050505081526020016002820160009054906101000a900473ffffffffffffffffffffffffffffffffffffffff1673ffffffffffffffffffffffffffffffffffffffff1673ffffffffffffffffffffffffffffffffffffffff16815260200160038201548152602001600482015481526020016005820160009054906101000a900460ff1615151515815250509050600015158160a0015115151461108b576040517f08c379a000000000000000000000000000000000000000000000000000000000815260040161108290612140565b60405180910390fd5b8173ffffffffffffffffffffffffffffffffffffffff1663a9059cbb82604001518473ffffffffffffffffffffffffffffffffffffffff166370a08231306040518263ffffffff1660e01b81526004016110e591906116b5565b602060405180830381865afa158015611102573d6000803e3d6000fd5b505050506040513d601f19601f820116820180604052508101906111269190612175565b6040518363ffffffff1660e01b8152600401611143929190612072565b6020604051808303816000875af1158015611162573d6000803e3d6000fd5b505050506040513d601f19601f8201168201806040525081019061118691906120c7565b506000816040015173ffffffffffffffffffffffffffffffffffffffff1682608001516040516111b590611d45565b60006040518083038185875af1925050503d80600081146111f2576040519150601f19603f3d011682016040523d82523d6000602084013e6111f7565b606091505b505090508061123b576040517f08c379a000000000000000000000000000000000000000000000000000000000815260040161123290611da6565b60405180910390fd5b50505050565b611c4a806121a383390190565b6040518060c00160405280600073ffffffffffffffffffffffffffffffffffffffff16815260200160608152602001600073ffffffffffffffffffffffffffffffffffffffff16815260200160008152602001600081526020016000151581525090565b6000819050919050565b6112c5816112b2565b82525050565b60006020820190506112e060008301846112bc565b92915050565b6000604051905090565b600080fd5b600080fd5b600080fd5b600080fd5b6000601f19601f8301169050919050565b7f4e487b7100000000000000000000000000000000000000000000000000000000600052604160045260246000fd5b61134d82611304565b810181811067ffffffffffffffff8211171561136c5761136b611315565b5b80604052505050565b600061137f6112e6565b905061138b8282611344565b919050565b600067ffffffffffffffff8211156113ab576113aa611315565b5b6113b482611304565b9050602081019050919050565b82818337600083830152505050565b60006113e36113de84611390565b611375565b9050828152602081018484840111156113ff576113fe6112ff565b5b61140a8482856113c1565b509392505050565b600082601f830112611427576114266112fa565b5b81356114378482602086016113d0565b91505092915050565b60008060408385031215611457576114566112f0565b5b600083013567ffffffffffffffff811115611475576114746112f5565b5b61148185828601611412565b925050602083013567ffffffffffffffff8111156114a2576114a16112f5565b5b6114ae85828601611412565b9150509250929050565b6114c1816112b2565b81146114cc57600080fd5b50565b6000813590506114de816114b8565b92915050565b6000602082840312156114fa576114f96112f0565b5b6000611508848285016114cf565b91505092915050565b600073ffffffffffffffffffffffffffffffffffffffff82169050919050565b600061153c82611511565b9050919050565b61154c81611531565b82525050565b600081519050919050565b600082825260208201905092915050565b60005b8381101561158c578082015181840152602081019050611571565b60008484015250505050565b60006115a382611552565b6115ad818561155d565b93506115bd81856020860161156e565b6115c681611304565b840191505092915050565b6115da816112b2565b82525050565b60008115159050919050565b6115f5816115e0565b82525050565b600060c0830160008301516116136000860182611543565b506020830151848203602086015261162b8282611598565b91505060408301516116406040860182611543565b50606083015161165360608601826115d1565b50608083015161166660808601826115d1565b5060a083015161167960a08601826115ec565b508091505092915050565b6000602082019050818103600083015261169e81846115fb565b905092915050565b6116af81611531565b82525050565b60006020820190506116ca60008301846116a6565b92915050565b6116d981611531565b81146116e457600080fd5b50565b6000813590506116f6816116d0565b92915050565b600060208284031215611712576117116112f0565b5b6000611720848285016116e7565b91505092915050565b600082825260208201905092915050565b600061174582611552565b61174f8185611729565b935061175f81856020860161156e565b61176881611304565b840191505092915050565b61177c816115e0565b82525050565b600060c08201905061179760008301896116a6565b81810360208301526117a9818861173a565b90506117b860408301876116a6565b6117c560608301866112bc565b6117d260808301856112bc565b6117df60a0830184611773565b979650505050505050565b60008060408385031215611801576118006112f0565b5b600061180f858286016116e7565b9250506020611820858286016114cf565b9150509250929050565b7f4c61756e63687061643a2043726561746f7220666565206e6f74206d65740000600082015250565b6000611860601e83611729565b915061186b8261182a565b602082019050919050565b6000602082019050818103600083015261188f81611853565b9050919050565b6000819050919050565b6000819050919050565b60006118c56118c06118bb84611896565b6118a0565b6112b2565b9050919050565b6118d5816118aa565b82525050565b60006080820190506118f060008301876116a6565b8181036020830152611902818661173a565b90508181036040830152611916818561173a565b905061192560608301846118cc565b95945050505050565b7f4e487b7100000000000000000000000000000000000000000000000000000000600052601160045260246000fd5b6000611968826112b2565b91507fffffffffffffffffffffffffffffffffffffffffffffffffffffffffffffffff820361199a5761199961192e565b5b600182019050919050565b7f4e487b7100000000000000000000000000000000000000000000000000000000600052602260045260246000fd5b600060028204905060018216806119ec57607f821691505b6020821081036119ff576119fe6119a5565b5b50919050565b60008190508160005260206000209050919050565b60006020601f8301049050919050565b600082821b905092915050565b600060088302611a677fffffffffffffffffffffffffffffffffffffffffffffffffffffffffffffffff82611a2a565b611a718683611a2a565b95508019841693508086168417925050509392505050565b6000611aa4611a9f611a9a846112b2565b6118a0565b6112b2565b9050919050565b6000819050919050565b611abe83611a89565b611ad2611aca82611aab565b848454611a37565b825550505050565b600090565b611ae7611ada565b611af2818484611ab5565b505050565b5b81811015611b1657611b0b600082611adf565b600181019050611af8565b5050565b601f821115611b5b57611b2c81611a05565b611b3584611a1a565b81016020851015611b44578190505b611b58611b5085611a1a565b830182611af7565b50505b505050565b600082821c905092915050565b6000611b7e60001984600802611b60565b1980831691505092915050565b6000611b978383611b6d565b9150826002028217905092915050565b611bb082611552565b67ffffffffffffffff811115611bc957611bc8611315565b5b611bd382546119d4565b611bde828285611b1a565b600060209050601f831160018114611c115760008415611bff578287015190505b611c098582611b8b565b865550611c71565b601f198416611c1f86611a05565b60005b82811015611c4757848901518255600182019150602085019450602081019050611c22565b86831015611c645784890151611c60601f891682611b6d565b8355505b6001600288020188555050505b505050505050565b7f4e487b7100000000000000000000000000000000000000000000000000000000600052603260045260246000fd5b7f4c61756e63687061643a204e6f74206f776e6572000000000000000000000000600082015250565b6000611cde601483611729565b9150611ce982611ca8565b602082019050919050565b60006020820190508181036000830152611d0d81611cd1565b9050919050565b600081905092915050565b50565b6000611d2f600083611d14565b9150611d3a82611d1f565b600082019050919050565b6000611d5082611d22565b9150819050919050565b7f4c61756e63687061643a20455448207472616e73666572206661696c65640000600082015250565b6000611d90601e83611729565b9150611d9b82611d5a565b602082019050919050565b60006020820190508181036000830152611dbf81611d83565b9050919050565b7f4e487b7100000000000000000000000000000000000000000000000000000000600052601260045260246000fd5b6000611e00826112b2565b9150611e0b836112b2565b925082611e1b57611e1a611dc6565b5b828204905092915050565b6000611e31826112b2565b9150611e3c836112b2565b9250828202611e4a816112b2565b91508282048414831517611e6157611e6061192e565b5b5092915050565b6000611e73826112b2565b9150611e7e836112b2565b9250828201905080821115611e9657611e9561192e565b5b92915050565b7f4c61756e63687061643a20427579696e6720636c6f7365640000000000000000600082015250565b6000611ed2601883611729565b9150611edd82611e9c565b602082019050919050565b60006020820190508181036000830152611f0181611ec5565b9050919050565b7f4c61756e63687061643a20416d6f756e7420746f6f206c6f7700000000000000600082015250565b6000611f3e601983611729565b9150611f4982611f08565b602082019050919050565b60006020820190508181036000830152611f6d81611f31565b9050919050565b7f4c61756e63687061643a20416d6f756e74206578636565646564000000000000600082015250565b6000611faa601a83611729565b9150611fb582611f74565b602082019050919050565b60006020820190508181036000830152611fd981611f9d565b9050919050565b7f4c61756e63687061643a20496e73756666696369656e7420455448207265636560008201527f6976656400000000000000000000000000000000000000000000000000000000602082015250565b600061203c602483611729565b915061204782611fe0565b604082019050919050565b6000602082019050818103600083015261206b8161202f565b9050919050565b600060408201905061208760008301856116a6565b61209460208301846112bc565b9392505050565b6120a4816115e0565b81146120af57600080fd5b50565b6000815190506120c18161209b565b92915050565b6000602082840312156120dd576120dc6112f0565b5b60006120eb848285016120b2565b91505092915050565b7f4c61756e63687061643a20546172676574206e6f742072656163686564000000600082015250565b600061212a601d83611729565b9150612135826120f4565b602082019050919050565b600060208201905081810360008301526121598161211d565b9050919050565b60008151905061216f816114b8565b92915050565b60006020828403121561218b5761218a6112f0565b5b600061219984828501612160565b9150509291505056fe608060405234801561001057600080fd5b50604051611c4a380380611c4a83398181016040528101906100329190610466565b82828160039081610043919061071c565b508060049081610053919061071c565b50505033600560006101000a81548173ffffffffffffffffffffffffffffffffffffffff021916908373ffffffffffffffffffffffffffffffffffffffff16021790555083600660006101000a81548173ffffffffffffffffffffffffffffffffffffffff021916908373ffffffffffffffffffffffffffffffffffffffff1602179055506100e833826100f160201b60201c565b505050506108f8565b600073ffffffffffffffffffffffffffffffffffffffff168273ffffffffffffffffffffffffffffffffffffffff1603610160576040517f08c379a00000000000000000000000000000000000000000000000000000000081526004016101579061084b565b60405180910390fd5b6101726000838361025360201b60201c565b8060026000828254610184919061089a565b92505081905550806000808473ffffffffffffffffffffffffffffffffffffffff1673ffffffffffffffffffffffffffffffffffffffff168152602001908152602001600020600082825401925050819055508173ffffffffffffffffffffffffffffffffffffffff16600073ffffffffffffffffffffffffffffffffffffffff167fddf252ad1be2c89b69c2b068fc378daa952ba7f163c4a11628f55a4df523b3ef8360405161023591906108dd565b60405180910390a361024f6000838361025860201b60201c565b5050565b505050565b505050565b6000604051905090565b600080fd5b600080fd5b600073ffffffffffffffffffffffffffffffffffffffff82169050919050565b600061029c82610271565b9050919050565b6102ac81610291565b81146102b757600080fd5b50565b6000815190506102c9816102a3565b92915050565b600080fd5b600080fd5b6000601f19601f8301169050919050565b7f4e487b7100000000000000000000000000000000000000000000000000000000600052604160045260246000fd5b610322826102d9565b810181811067ffffffffffffffff82111715610341576103406102ea565b5b80604052505050565b600061035461025d565b90506103608282610319565b919050565b600067ffffffffffffffff8211156103805761037f6102ea565b5b610389826102d9565b9050602081019050919050565b60005b838110156103b4578082015181840152602081019050610399565b60008484015250505050565b60006103d36103ce84610365565b61034a565b9050828152602081018484840111156103ef576103ee6102d4565b5b6103fa848285610396565b509392505050565b600082601f830112610417576104166102cf565b5b81516104278482602086016103c0565b91505092915050565b6000819050919050565b61044381610430565b811461044e57600080fd5b50565b6000815190506104608161043a565b92915050565b600080600080608085870312156104805761047f610267565b5b600061048e878288016102ba565b945050602085015167ffffffffffffffff8111156104af576104ae61026c565b5b6104bb87828801610402565b935050604085015167ffffffffffffffff8111156104dc576104db61026c565b5b6104e887828801610402565b92505060606104f987828801610451565b91505092959194509250565b600081519050919050565b7f4e487b7100000000000000000000000000000000000000000000000000000000600052602260045260246000fd5b6000600282049050600182168061055757607f821691505b60208210810361056a57610569610510565b5b50919050565b60008190508160005260206000209050919050565b60006020601f8301049050919050565b600082821b905092915050565b6000600883026105d27fffffffffffffffffffffffffffffffffffffffffffffffffffffffffffffffff82610595565b6105dc8683610595565b95508019841693508086168417925050509392505050565b6000819050919050565b600061061961061461060f84610430565b6105f4565b610430565b9050919050565b6000819050919050565b610633836105fe565b61064761063f82610620565b8484546105a2565b825550505050565b600090565b61065c61064f565b61066781848461062a565b505050565b5b8181101561068b57610680600082610654565b60018101905061066d565b5050565b601f8211156106d0576106a181610570565b6106aa84610585565b810160208510156106b9578190505b6106cd6106c585610585565b83018261066c565b50505b505050565b600082821c905092915050565b60006106f3600019846008026106d5565b1980831691505092915050565b600061070c83836106e2565b9150826002028217905092915050565b61072582610505565b67ffffffffffffffff81111561073e5761073d6102ea565b5b610748825461053f565b61075382828561068f565b600060209050601f8311600181146107865760008415610774578287015190505b61077e8582610700565b8655506107e6565b601f19841661079486610570565b60005b828110156107bc57848901518255600182019150602085019450602081019050610797565b868310156107d957848901516107d5601f8916826106e2565b8355505b6001600288020188555050505b505050505050565b600082825260208201905092915050565b7f45524332303a206d696e7420746f20746865207a65726f206164647265737300600082015250565b6000610835601f836107ee565b9150610840826107ff565b602082019050919050565b6000602082019050818103600083015261086481610828565b9050919050565b7f4e487b7100000000000000000000000000000000000000000000000000000000600052601160045260246000fd5b60006108a582610430565b91506108b083610430565b92508282019050808211156108c8576108c761086b565b5b92915050565b6108d781610430565b82525050565b60006020820190506108f260008301846108ce565b92915050565b611343806109076000396000f3fe608060405234801561001057600080fd5b50600436106100cf5760003560e01c8063395093511161008c57806395d89b411161006657806395d89b411461022a578063a457c2d714610248578063a9059cbb14610278578063dd62ed3e146102a8576100cf565b806339509351146101ac57806370a08231146101dc5780638da5cb5b1461020c576100cf565b806302d05d3f146100d457806306fdde03146100f2578063095ea7b31461011057806318160ddd1461014057806323b872dd1461015e578063313ce5671461018e575b600080fd5b6100dc6102d8565b6040516100e99190610b6b565b60405180910390f35b6100fa6102fe565b6040516101079190610c16565b60405180910390f35b61012a60048036038101906101259190610c9f565b610390565b6040516101379190610cfa565b60405180910390f35b6101486103b3565b6040516101559190610d24565b60405180910390f35b61017860048036038101906101739190610d3f565b6103bd565b6040516101859190610cfa565b60405180910390f35b6101966103ec565b6040516101a39190610dae565b60405180910390f35b6101c660048036038101906101c19190610c9f565b6103f5565b6040516101d39190610cfa565b60405180910390f35b6101f660048036038101906101f19190610dc9565b61042c565b6040516102039190610d24565b60405180910390f35b610214610474565b6040516102219190610e17565b60405180910390f35b61023261049a565b60405161023f9190610c16565b60405180910390f35b610262600480360381019061025d9190610c9f565b61052c565b60405161026f9190610cfa565b60405180910390f35b610292600480360381019061028d9190610c9f565b6105a3565b60405161029f9190610cfa565b60405180910390f35b6102c260048036038101906102bd9190610e32565b6105c6565b6040516102cf9190610d24565b60405180910390f35b600660009054906101000a900473ffffffffffffffffffffffffffffffffffffffff1681565b60606003805461030d90610ea1565b80601f016020809104026020016040519081016040528092919081815260200182805461033990610ea1565b80156103865780601f1061035b57610100808354040283529160200191610386565b820191906000526020600020905b81548152906001019060200180831161036957829003601f168201915b5050505050905090565b60008061039b61064d565b90506103a8818585610655565b600191505092915050565b6000600254905090565b6000806103c861064d565b90506103d585828561081e565b6103e08585856108aa565b60019150509392505050565b60006012905090565b60008061040061064d565b905061042181858561041285896105c6565b61041c9190610f01565b610655565b600191505092915050565b60008060008373ffffffffffffffffffffffffffffffffffffffff1673ffffffffffffffffffffffffffffffffffffffff168152602001908152602001600020549050919050565b600560009054906101000a900473ffffffffffffffffffffffffffffffffffffffff1681565b6060600480546104a990610ea1565b80601f01602080910402602001604051908101604052809291908181526020018280546104d590610ea1565b80156105225780601f106104f757610100808354040283529160200191610522565b820191906000526020600020905b81548152906001019060200180831161050557829003601f168201915b5050505050905090565b60008061053761064d565b9050600061054582866105c6565b90508381101561058a576040517f08c379a000000000000000000000000000000000000000000000000000000000815260040161058190610fa7565b60405180910390fd5b6105978286868403610655565b60019250505092915050565b6000806105ae61064d565b90506105bb8185856108aa565b600191505092915050565b6000600160008473ffffffffffffffffffffffffffffffffffffffff1673ffffffffffffffffffffffffffffffffffffffff16815260200190815260200160002060008373ffffffffffffffffffffffffffffffffffffffff1673ffffffffffffffffffffffffffffffffffffffff16815260200190815260200160002054905092915050565b600033905090565b600073ffffffffffffffffffffffffffffffffffffffff168373ffffffffffffffffffffffffffffffffffffffff16036106c4576040517f08c379a00000000000000000000000000000000000000000000000000000000081526004016106bb90611039565b60405180910390fd5b600073ffffffffffffffffffffffffffffffffffffffff168273ffffffffffffffffffffffffffffffffffffffff1603610733576040517f08c379a000000000000000000000000000000000000000000000000000000000815260040161072a906110cb565b60405180910390fd5b80600160008573ffffffffffffffffffffffffffffffffffffffff1673ffffffffffffffffffffffffffffffffffffffff16815260200190815260200160002060008473ffffffffffffffffffffffffffffffffffffffff1673ffffffffffffffffffffffffffffffffffffffff168152602001908152602001600020819055508173ffffffffffffffffffffffffffffffffffffffff168373ffffffffffffffffffffffffffffffffffffffff167f8c5be1e5ebec7d5bd14f71427d1e84f3dd0314c0f7b2291e5b200ac8c7c3b925836040516108119190610d24565b60405180910390a3505050565b600061082a84846105c6565b90507fffffffffffffffffffffffffffffffffffffffffffffffffffffffffffffffff81146108a45781811015610896576040517f08c379a000000000000000000000000000000000000000000000000000000000815260040161088d90611137565b60405180910390fd5b6108a38484848403610655565b5b50505050565b600073ffffffffffffffffffffffffffffffffffffffff168373ffffffffffffffffffffffffffffffffffffffff1603610919576040517f08c379a0000000000000000000000000000000000000000000000000000000008152600401610910906111c9565b60405180910390fd5b600073ffffffffffffffffffffffffffffffffffffffff168273ffffffffffffffffffffffffffffffffffffffff1603610988576040517f08c379a000000000000000000000000000000000000000000000000000000000815260040161097f9061125b565b60405180910390fd5b610993838383610b20565b60008060008573ffffffffffffffffffffffffffffffffffffffff1673ffffffffffffffffffffffffffffffffffffffff16815260200190815260200160002054905081811015610a19576040517f08c379a0000000000000000000000000000000000000000000000000000000008152600401610a10906112ed565b60405180910390fd5b8181036000808673ffffffffffffffffffffffffffffffffffffffff1673ffffffffffffffffffffffffffffffffffffffff16815260200190815260200160002081905550816000808573ffffffffffffffffffffffffffffffffffffffff1673ffffffffffffffffffffffffffffffffffffffff168152602001908152602001600020600082825401925050819055508273ffffffffffffffffffffffffffffffffffffffff168473ffffffffffffffffffffffffffffffffffffffff167fddf252ad1be2c89b69c2b068fc378daa952ba7f163c4a11628f55a4df523b3ef84604051610b079190610d24565b60405180910390a3610b1a848484610b25565b50505050565b505050565b505050565b600073ffffffffffffffffffffffffffffffffffffffff82169050919050565b6000610b5582610b2a565b9050919050565b610b6581610b4a565b82525050565b6000602082019050610b806000830184610b5c565b92915050565b600081519050919050565b600082825260208201905092915050565b60005b83811015610bc0578082015181840152602081019050610ba5565b60008484015250505050565b6000601f19601f8301169050919050565b6000610be882610b86565b610bf28185610b91565b9350610c02818560208601610ba2565b610c0b81610bcc565b840191505092915050565b60006020820190508181036000830152610c308184610bdd565b905092915050565b600080fd5b610c4681610b4a565b8114610c5157600080fd5b50565b600081359050610c6381610c3d565b92915050565b6000819050919050565b610c7c81610c69565b8114610c8757600080fd5b50565b600081359050610c9981610c73565b92915050565b60008060408385031215610cb657610cb5610c38565b5b6000610cc485828601610c54565b9250506020610cd585828601610c8a565b9150509250929050565b60008115159050919050565b610cf481610cdf565b82525050565b6000602082019050610d0f6000830184610ceb565b92915050565b610d1e81610c69565b82525050565b6000602082019050610d396000830184610d15565b92915050565b600080600060608486031215610d5857610d57610c38565b5b6000610d6686828701610c54565b9350506020610d7786828701610c54565b9250506040610d8886828701610c8a565b9150509250925092565b600060ff82169050919050565b610da881610d92565b82525050565b6000602082019050610dc36000830184610d9f565b92915050565b600060208284031215610ddf57610dde610c38565b5b6000610ded84828501610c54565b91505092915050565b6000610e0182610b2a565b9050919050565b610e1181610df6565b82525050565b6000602082019050610e2c6000830184610e08565b92915050565b60008060408385031215610e4957610e48610c38565b5b6000610e5785828601610c54565b9250506020610e6885828601610c54565b9150509250929050565b7f4e487b7100000000000000000000000000000000000000000000000000000000600052602260045260246000fd5b60006002820490506001821680610eb957607f821691505b602082108103610ecc57610ecb610e72565b5b50919050565b7f4e487b7100000000000000000000000000000000000000000000000000000000600052601160045260246000fd5b6000610f0c82610c69565b9150610f1783610c69565b9250828201905080821115610f2f57610f2e610ed2565b5b92915050565b7f45524332303a2064656372656173656420616c6c6f77616e63652062656c6f7760008201527f207a65726f000000000000000000000000000000000000000000000000000000602082015250565b6000610f91602583610b91565b9150610f9c82610f35565b604082019050919050565b60006020820190508181036000830152610fc081610f84565b9050919050565b7f45524332303a20617070726f76652066726f6d20746865207a65726f2061646460008201527f7265737300000000000000000000000000000000000000000000000000000000602082015250565b6000611023602483610b91565b915061102e82610fc7565b604082019050919050565b6000602082019050818103600083015261105281611016565b9050919050565b7f45524332303a20617070726f766520746f20746865207a65726f20616464726560008201527f7373000000000000000000000000000000000000000000000000000000000000602082015250565b60006110b5602283610b91565b91506110c082611059565b604082019050919050565b600060208201905081810360008301526110e4816110a8565b9050919050565b7f45524332303a20696e73756666696369656e7420616c6c6f77616e6365000000600082015250565b6000611121601d83610b91565b915061112c826110eb565b602082019050919050565b6000602082019050818103600083015261115081611114565b9050919050565b7f45524332303a207472616e736665722066726f6d20746865207a65726f20616460008201527f6472657373000000000000000000000000000000000000000000000000000000602082015250565b60006111b3602583610b91565b91506111be82611157565b604082019050919050565b600060208201905081810360008301526111e2816111a6565b9050919050565b7f45524332303a207472616e7366657220746f20746865207a65726f206164647260008201527f6573730000000000000000000000000000000000000000000000000000000000602082015250565b6000611245602383610b91565b9150611250826111e9565b604082019050919050565b6000602082019050818103600083015261127481611238565b9050919050565b7f45524332303a207472616e7366657220616d6f756e742065786365656473206260008201527f616c616e63650000000000000000000000000000000000000000000000000000602082015250565b60006112d7602683610b91565b91506112e28261127b565b604082019050919050565b60006020820190508181036000830152611306816112ca565b905091905056fea2646970667358221220228d5dde87bbdb0274a0732bdaca50ec21fd25cbf91c7af683f1964a7a00254764736f6c634300081b0033a264697066735822122029c9a77d157c9e78032394871598e75216fc764530acbe3b80cc9b984f5c21df64736f6c634300081b0033",
  "linkReferences": {},
  "deployedLinkReferences": {}
}